{
  "contractName": "LandRegistry",
  "abi": [
    {
      "anonymous": false,
      "inputs": [
        {
          "indexed": true,
          "internalType": "uint256",
          "name": "landId",
          "type": "uint256"
        },
        {
          "indexed": false,
          "internalType": "string",
          "name": "location",
          "type": "string"
        },
        {
          "indexed": false,
          "internalType": "uint256",
          "name": "area",
          "type": "uint256"
        },
        {
          "indexed": true,
          "internalType": "address",
          "name": "owner",
          "type": "address"
        }
      ],
      "name": "LandRegistered",
      "type": "event"
    },
    {
      "anonymous": false,
      "inputs": [
        {
          "indexed": true,
          "internalType": "uint256",
          "name": "landId",
          "type": "uint256"
        },
        {
          "indexed": true,
          "internalType": "address",
          "name": "oldOwner",
          "type": "address"
        },
        {
          "indexed": true,
          "internalType": "address",
          "name": "newOwner",
          "type": "address"
        }
      ],
      "name": "OwnershipTransferred",
      "type": "event"
    },
    {
      "inputs": [
        {
          "internalType": "uint256",
          "name": "_id",
          "type": "uint256"
        },
        {
          "internalType": "string",
          "name": "_location",
          "type": "string"
        },
        {
          "internalType": "uint256",
          "name": "_area",
          "type": "uint256"
        }
      ],
      "name": "registerLand",
      "outputs": [],
      "stateMutability": "nonpayable",
      "type": "function"
    },
    {
      "inputs": [
        {
          "internalType": "uint256",
          "name": "_id",
          "type": "uint256"
        },
        {
          "internalType": "address",
          "name": "_newOwner",
          "type": "address"
        }
      ],
      "name": "transferOwnership",
      "outputs": [],
      "stateMutability": "nonpayable",
      "type": "function"
    },
    {
      "inputs": [
        {
          "internalType": "uint256",
          "name": "_id",
          "type": "uint256"
        }
      ],
      "name": "getLand",
      "outputs": [
        {
          "internalType": "uint256",
          "name": "",
          "type": "uint256"
        },
        {
          "internalType": "string",
          "name": "",
          "type": "string"
        },
        {
          "internalType": "uint256",
          "name": "",
          "type": "uint256"
        },
        {
          "internalType": "address",
          "name": "",
          "type": "address"
        },
        {
          "internalType": "bool",
          "name": "",
          "type": "bool"
        }
      ],
      "stateMutability": "view",
      "type": "function",
      "constant": true
    },
    {
      "inputs": [
        {
          "internalType": "uint256",
          "name": "_id",
          "type": "uint256"
        }
      ],
      "name": "isLandRegistered",
      "outputs": [
        {
          "internalType": "bool",
          "name": "",
          "type": "bool"
        }
      ],
      "stateMutability": "view",
      "type": "function",
      "constant": true
    }
  ],
  "bytecode": "0x608060405234801561001057600080fd5b50610d8c806100206000396000f3fe608060405234801561001057600080fd5b506004361061004c5760003560e01c806329507f73146100515780632e8782bc1461006d57806398f1c3401461009d578063f02dd53f146100b9575b600080fd5b61006b60048036038101906100669190610852565b6100ed565b005b61008760048036038101906100829190610829565b610352565b6040516100949190610a5b565b60405180910390f35b6100b760048036038101906100b2919061088e565b61037e565b005b6100d360048036038101906100ce9190610829565b610524565b6040516100e4959493929190610b26565b60405180910390f35b813373ffffffffffffffffffffffffffffffffffffffff1660008083815260200190815260200160002060030160009054906101000a900473ffffffffffffffffffffffffffffffffffffffff1673ffffffffffffffffffffffffffffffffffffffff1614610191576040517f08c379a000000000000000000000000000000000000000000000000000000000815260040161018890610ac6565b60405180910390fd5b60008084815260200190815260200160002060030160149054906101000a900460ff166101f3576040517f08c379a00000000000000000000000000000000000000000000000000000000081526004016101ea90610aa6565b60405180910390fd5b600073ffffffffffffffffffffffffffffffffffffffff168273ffffffffffffffffffffffffffffffffffffffff161415610263576040517f08c379a000000000000000000000000000000000000000000000000000000000815260040161025a90610b06565b60405180910390fd5b600080600085815260200190815260200160002060030160009054906101000a900473ffffffffffffffffffffffffffffffffffffffff1690508260008086815260200190815260200160002060030160006101000a81548173ffffffffffffffffffffffffffffffffffffffff021916908373ffffffffffffffffffffffffffffffffffffffff1602179055508273ffffffffffffffffffffffffffffffffffffffff168173ffffffffffffffffffffffffffffffffffffffff16857f16b85f49bf01212961345d3016c9a531894accf62eb7680f2045d79185cc0ec060405160405180910390a450505050565b600080600083815260200190815260200160002060030160149054906101000a900460ff169050919050565b60008084815260200190815260200160002060030160149054906101000a900460ff16156103e1576040517f08c379a00000000000000000000000000000000000000000000000000000000081526004016103d890610ae6565b60405180910390fd5b6040518060a001604052808481526020018381526020018281526020013373ffffffffffffffffffffffffffffffffffffffff168152602001600115158152506000808581526020019081526020016000206000820151816000015560208201518160010190805190602001906104599291906106f4565b506040820151816002015560608201518160030160006101000a81548173ffffffffffffffffffffffffffffffffffffffff021916908373ffffffffffffffffffffffffffffffffffffffff16021790555060808201518160030160146101000a81548160ff0219169083151502179055509050503373ffffffffffffffffffffffffffffffffffffffff16837f53a976a9b9d61df3bb2e08e33448938aea67fb03572279eb18ed48cdd6fad04e8484604051610517929190610a76565b60405180910390a3505050565b60006060600080600080600087815260200190815260200160002060030160149054906101000a900460ff1661058f576040517f08c379a000000000000000000000000000000000000000000000000000000000815260040161058690610aa6565b60405180910390fd5b60008060008881526020019081526020016000206040518060a0016040529081600082015481526020016001820180546105c890610c87565b80601f01602080910402602001604051908101604052809291908181526020018280546105f490610c87565b80156106415780601f1061061657610100808354040283529160200191610641565b820191906000526020600020905b81548152906001019060200180831161062457829003601f168201915b50505050508152602001600282015481526020016003820160009054906101000a900473ffffffffffffffffffffffffffffffffffffffff1673ffffffffffffffffffffffffffffffffffffffff1673ffffffffffffffffffffffffffffffffffffffff1681526020016003820160149054906101000a900460ff161515151581525050905080600001518160200151826040015183606001518460800151955095509550955095505091939590929450565b82805461070090610c87565b90600052602060002090601f0160209004810192826107225760008555610769565b82601f1061073b57805160ff1916838001178555610769565b82800160010185558215610769579182015b8281111561076857825182559160200191906001019061074d565b5b509050610776919061077a565b5090565b5b8082111561079357600081600090555060010161077b565b5090565b60006107aa6107a584610bb1565b610b80565b9050828152602081018484840111156107c257600080fd5b6107cd848285610c45565b509392505050565b6000813590506107e481610d28565b92915050565b600082601f8301126107fb57600080fd5b813561080b848260208601610797565b91505092915050565b60008135905061082381610d3f565b92915050565b60006020828403121561083b57600080fd5b600061084984828501610814565b91505092915050565b6000806040838503121561086557600080fd5b600061087385828601610814565b9250506020610884858286016107d5565b9150509250929050565b6000806000606084860312156108a357600080fd5b60006108b186828701610814565b935050602084013567ffffffffffffffff8111156108ce57600080fd5b6108da868287016107ea565b92505060406108eb86828701610814565b9150509250925092565b6108fe81610bfd565b82525050565b61090d81610c0f565b82525050565b600061091e82610be1565b6109288185610bec565b9350610938818560208601610c54565b61094181610d17565b840191505092915050565b6000610959601383610bec565b91507f4c616e64206e6f742072656769737465726564000000000000000000000000006000830152602082019050919050565b6000610999601783610bec565b91507f43616c6c6572206973206e6f7420746865206f776e65720000000000000000006000830152602082019050919050565b60006109d9601783610bec565b91507f4c616e6420616c726561647920726567697374657265640000000000000000006000830152602082019050919050565b6000610a19601d83610bec565b91507f4e6577206f776e657220697320746865207a65726f20616464726573730000006000830152602082019050919050565b610a5581610c3b565b82525050565b6000602082019050610a706000830184610904565b92915050565b60006040820190508181036000830152610a908185610913565b9050610a9f6020830184610a4c565b9392505050565b60006020820190508181036000830152610abf8161094c565b9050919050565b60006020820190508181036000830152610adf8161098c565b9050919050565b60006020820190508181036000830152610aff816109cc565b9050919050565b60006020820190508181036000830152610b1f81610a0c565b9050919050565b600060a082019050610b3b6000830188610a4c565b8181036020830152610b4d8187610913565b9050610b5c6040830186610a4c565b610b6960608301856108f5565b610b766080830184610904565b9695505050505050565b6000604051905081810181811067ffffffffffffffff82111715610ba757610ba6610ce8565b5b8060405250919050565b600067ffffffffffffffff821115610bcc57610bcb610ce8565b5b601f19601f8301169050602081019050919050565b600081519050919050565b600082825260208201905092915050565b6000610c0882610c1b565b9050919050565b60008115159050919050565b600073ffffffffffffffffffffffffffffffffffffffff82169050919050565b6000819050919050565b82818337600083830152505050565b60005b83811015610c72578082015181840152602081019050610c57565b83811115610c81576000848401525b50505050565b60006002820490506001821680610c9f57607f821691505b60208210811415610cb357610cb2610cb9565b5b50919050565b7f4e487b7100000000000000000000000000000000000000000000000000000000600052602260045260246000fd5b7f4e487b7100000000000000000000000000000000000000000000000000000000600052604160045260246000fd5b6000601f19601f8301169050919050565b610d3181610bfd565b8114610d3c57600080fd5b50565b610d4881610c3b565b8114610d5357600080fd5b5056fea264697066735822122086315098c68d988c5474d80bacd0753c00ce42536d7bd710b923059aa1101bfe64736f6c63430008000033",
  "immutableReferences": {},
  "source": "// SPDX-License-Identifier: MIT\r\npragma solidity ^0.8.0;\r\n\r\ncontract LandRegistry {\r\n    // Structure to represent a land parcel\r\n    struct Land {\r\n        uint256 id;\r\n        string location;\r\n        uint256 area; // Area in square meters\r\n        address owner;\r\n        bool registered;\r\n    }\r\n\r\n    // Mapping from land ID to Land details\r\n    mapping(uint256 => Land) private lands;\r\n\r\n    // Event emitted when a new land is registered\r\n    event LandRegistered(uint256 indexed landId, string location, uint256 area, address indexed owner);\r\n\r\n    // Event emitted when land ownership is transferred\r\n    event OwnershipTransferred(uint256 indexed landId, address indexed oldOwner, address indexed newOwner);\r\n\r\n    // Modifier to check if the caller is the owner of the land\r\n    modifier onlyOwner(uint256 _id) {\r\n        require(lands[_id].owner == msg.sender, \"Caller is not the owner\");\r\n        _;\r\n    }\r\n\r\n    // Register a new land parcel\r\n    function registerLand(uint256 _id, string memory _location, uint256 _area) public {\r\n        require(!lands[_id].registered, \"Land already registered\");\r\n\r\n        lands[_id] = Land({\r\n            id: _id,\r\n            location: _location,\r\n            area: _area,\r\n            owner: msg.sender,\r\n            registered: true\r\n        });\r\n\r\n        emit LandRegistered(_id, _location, _area, msg.sender);\r\n    }\r\n\r\n    // Transfer ownership of a land parcel\r\n    function transferOwnership(uint256 _id, address _newOwner) public onlyOwner(_id) {\r\n        require(lands[_id].registered, \"Land not registered\");\r\n        require(_newOwner != address(0), \"New owner is the zero address\");\r\n\r\n        address oldOwner = lands[_id].owner;\r\n        lands[_id].owner = _newOwner;\r\n\r\n        emit OwnershipTransferred(_id, oldOwner, _newOwner);\r\n    }\r\n\r\n    // Get land details\r\n    function getLand(uint256 _id) public view returns (uint256, string memory, uint256, address, bool) {\r\n        require(lands[_id].registered, \"Land not registered\");\r\n\r\n        Land memory land = lands[_id];\r\n        return (land.id, land.location, land.area, land.owner, land.registered);\r\n    }\r\n\r\n    // Check if land is registered\r\n    function isLandRegistered(uint256 _id) public view returns (bool) {\r\n        return lands[_id].registered;\r\n    }\r\n}\r\n",
  "sourcePath": "C:\\Users\\dabhi\\Downloads\\VOIS\\Dapp-For-Landregistry\\contracts\\LandRegistry.sol",
  "compiler": {
    "name": "solc",
    "version": "0.8.0+commit.c7dfd78e.Emscripten.clang"
  },
  "schemaVersion": "3.4.16",
  "updatedAt": "2025-02-01T11:34:39.789Z",
  "networkType": "ethereum",
  "devdoc": {
    "kind": "dev",
    "methods": {},
    "version": 1
  },
  "userdoc": {
    "kind": "user",
    "methods": {},
    "version": 1
  }
}